{
  "contractName": "TinyGame",
  "abi": [
    {
      "constant": false,
      "inputs": [
        {
          "name": "_user",
          "type": "address"
        }
      ],
      "name": "getDollsByAddress",
      "outputs": [
        {
          "name": "",
          "type": "uint256[]"
        }
      ],
      "payable": false,
      "stateMutability": "nonpayable",
      "type": "function"
    },
    {
      "constant": false,
      "inputs": [],
      "name": "withdraw",
      "outputs": [],
      "payable": false,
      "stateMutability": "nonpayable",
      "type": "function"
    },
    {
      "constant": false,
      "inputs": [],
      "name": "submit",
      "outputs": [],
      "payable": false,
      "stateMutability": "nonpayable",
      "type": "function"
    },
    {
      "constant": false,
      "inputs": [],
      "name": "showBalance",
      "outputs": [
        {
          "name": "",
          "type": "uint256"
        }
      ],
      "payable": false,
      "stateMutability": "nonpayable",
      "type": "function"
    },
    {
      "constant": false,
      "inputs": [],
      "name": "payToCatch",
      "outputs": [],
      "payable": true,
      "stateMutability": "payable",
      "type": "function"
    },
    {
      "constant": false,
      "inputs": [
        {
          "name": "_recipient",
          "type": "address"
        },
        {
          "name": "dollList",
          "type": "uint256[]"
        }
      ],
      "name": "transferDoll",
      "outputs": [
        {
          "name": "",
          "type": "bool"
        }
      ],
      "payable": false,
      "stateMutability": "nonpayable",
      "type": "function"
    },
    {
      "constant": false,
      "inputs": [],
      "name": "loadBalance",
      "outputs": [],
      "payable": true,
      "stateMutability": "payable",
      "type": "function"
    },
    {
      "inputs": [
        {
          "name": "randomAddress",
          "type": "address"
        },
        {
          "name": "storeAddress",
          "type": "address"
        }
      ],
      "payable": false,
      "stateMutability": "nonpayable",
      "type": "constructor"
    },
    {
      "anonymous": false,
      "inputs": [
        {
          "indexed": false,
          "name": "payer",
          "type": "address"
        },
        {
          "indexed": false,
          "name": "dollID",
          "type": "uint256"
        }
      ],
      "name": "PayOnce",
      "type": "event"
    },
    {
      "anonymous": false,
      "inputs": [
        {
          "indexed": false,
          "name": "winner",
          "type": "address"
        }
      ],
      "name": "SubmitSuccess",
      "type": "event"
    },
    {
      "anonymous": false,
      "inputs": [
        {
          "indexed": false,
          "name": "sender",
          "type": "address"
        },
        {
          "indexed": false,
          "name": "recipient",
          "type": "address"
        }
      ],
      "name": "Transfer",
      "type": "event"
    }
  ],
  "bytecode": "0x6060604052341561000f57600080fd5b604051604080610d788339810160405280805190602001909190805190602001909190505033600160006101000a81548173ffffffffffffffffffffffffffffffffffffffff021916908373ffffffffffffffffffffffffffffffffffffffff16021790555081600260006101000a81548173ffffffffffffffffffffffffffffffffffffffff021916908373ffffffffffffffffffffffffffffffffffffffff16021790555080600360006101000a81548173ffffffffffffffffffffffffffffffffffffffff021916908373ffffffffffffffffffffffffffffffffffffffff1602179055505050610c70806101086000396000f300606060405260043610610083576000357c0100000000000000000000000000000000000000000000000000000000900463ffffffff16806316cc702d146100885780633ccfd60b146101165780635bcb2fc61461012b57806381b2d07b14610140578063b1b083d414610169578063bb403ca814610173578063f638b98914610204575b600080fd5b341561009357600080fd5b6100bf600480803573ffffffffffffffffffffffffffffffffffffffff1690602001909190505061020e565b6040518080602001828103825283818151815260200191508051906020019060200280838360005b838110156101025780820151818401526020810190506100e7565b505050509050019250505060405180910390f35b341561012157600080fd5b6101296102b3565b005b341561013657600080fd5b61013e61035e565b005b341561014b57600080fd5b610153610513565b6040518082815260200191505060405180910390f35b610171610532565b005b341561017e57600080fd5b6101ea600480803573ffffffffffffffffffffffffffffffffffffffff16906020019091908035906020019082018035906020019080806020026020016040519081016040528093929190818152602001838360200280828437820191505050505050919050506105d2565b604051808215151515815260200191505060405180910390f35b61020c6108db565b005b610216610bbe565b61021f826108dd565b6000808373ffffffffffffffffffffffffffffffffffffffff1673ffffffffffffffffffffffffffffffffffffffff1681526020019081526020016000208054806020026020016040519081016040528092919081815260200182805480156102a757602002820191906000526020600020905b815481526020019060010190808311610293575b50505050509050919050565b600160009054906101000a900473ffffffffffffffffffffffffffffffffffffffff1673ffffffffffffffffffffffffffffffffffffffff163373ffffffffffffffffffffffffffffffffffffffff1614151561030f57600080fd5b3373ffffffffffffffffffffffffffffffffffffffff166108fc3073ffffffffffffffffffffffffffffffffffffffff16319081150290604051600060405180830381858888f1935050505050565b6000610369336108dd565b60009050600090505b60058110156103ed5760008060003373ffffffffffffffffffffffffffffffffffffffff1673ffffffffffffffffffffffffffffffffffffffff168152602001908152602001600020828154811015156103c857fe5b9060005260206000209001541115156103e057600080fd5b8080600101915050610372565b3373ffffffffffffffffffffffffffffffffffffffff166108fc67016345785d8a00009081150290604051600060405180830381858888f1935050505050600090505b60058110156104ad576000803373ffffffffffffffffffffffffffffffffffffffff1673ffffffffffffffffffffffffffffffffffffffff1681526020019081526020016000208181548110151561048457fe5b906000526020600020900160008154809291906001900391905055508080600101915050610430565b7f700d77496a531d4ef80d8e5a94ada9bf17b33c23d330e26a289a661e83a3130933604051808273ffffffffffffffffffffffffffffffffffffffff1673ffffffffffffffffffffffffffffffffffffffff16815260200191505060405180910390a150565b60003073ffffffffffffffffffffffffffffffffffffffff1631905090565b6000662386f26fc100003414151561054957600080fd5b61055233610a18565b90506005811415151561056457600080fd5b7f52b32f43c4246d18ef76f65b8ef13361bbdeaebca3235883b54cf9c9816b59843382604051808373ffffffffffffffffffffffffffffffffffffffff1673ffffffffffffffffffffffffffffffffffffffff1681526020018281526020019250505060405180910390a150565b600080600583511415156105e557600080fd5b6105ee336108dd565b6105f7846108dd565b600090505b600581101561068e57828181518110151561061357fe5b906020019060200201516000803373ffffffffffffffffffffffffffffffffffffffff1673ffffffffffffffffffffffffffffffffffffffff1681526020019081526020016000208281548110151561066857fe5b9060005260206000209001541015151561068157600080fd5b80806001019150506105fc565b600090505b600581101561083d5782818151811015156106aa57fe5b906020019060200201516000803373ffffffffffffffffffffffffffffffffffffffff1673ffffffffffffffffffffffffffffffffffffffff168152602001908152602001600020828154811015156106ff57fe5b906000526020600020900154036000803373ffffffffffffffffffffffffffffffffffffffff1673ffffffffffffffffffffffffffffffffffffffff1681526020019081526020016000208281548110151561075757fe5b906000526020600020900181905550828181518110151561077457fe5b906020019060200201516000808673ffffffffffffffffffffffffffffffffffffffff1673ffffffffffffffffffffffffffffffffffffffff168152602001908152602001600020828154811015156107c957fe5b906000526020600020900154016000808673ffffffffffffffffffffffffffffffffffffffff1673ffffffffffffffffffffffffffffffffffffffff1681526020019081526020016000208281548110151561082157fe5b9060005260206000209001819055508080600101915050610693565b7f4853ae1b4d437c4255ac16cd3ceda3465975023f27cb141584cd9d44440fed823385604051808373ffffffffffffffffffffffffffffffffffffffff1673ffffffffffffffffffffffffffffffffffffffff1681526020018273ffffffffffffffffffffffffffffffffffffffff1673ffffffffffffffffffffffffffffffffffffffff1681526020019250505060405180910390a15092915050565b565b600060056000808473ffffffffffffffffffffffffffffffffffffffff1673ffffffffffffffffffffffffffffffffffffffff16815260200190815260200160002080549050141515610a145760056040518059106109395750595b90808252806020026020018201604052506000808473ffffffffffffffffffffffffffffffffffffffff1673ffffffffffffffffffffffffffffffffffffffff168152602001908152602001600020908051906020019061099b929190610bd2565b50600090505b6005811015610a135760008060008473ffffffffffffffffffffffffffffffffffffffff1673ffffffffffffffffffffffffffffffffffffffff168152602001908152602001600020828154811015156109f757fe5b90600052602060002090018190555080806001019150506109a1565b5b5050565b6000806000809150600260009054906101000a900473ffffffffffffffffffffffffffffffffffffffff1673ffffffffffffffffffffffffffffffffffffffff1663b863bd3760646000604051602001526040518263ffffffff167c010000000000000000000000000000000000000000000000000000000002815260040180828152602001915050602060405180830381600087803b1515610aba57600080fd5b6102c65a03f11515610acb57600080fd5b5050506040518051905090506014811015610ae95760009150610b27565b6028811015610afb5760019150610b26565b603c811015610b0d5760029150610b25565b6050811015610b1f5760039150610b24565b600491505b5b5b5b6000821080610b365750600482115b15610b445760059250610bb7565b610b4d846108dd565b6000808573ffffffffffffffffffffffffffffffffffffffff1673ffffffffffffffffffffffffffffffffffffffff16815260200190815260200160002082815481101515610b9857fe5b9060005260206000209001600081548092919060010191905055508192505b5050919050565b602060405190810160405280600081525090565b828054828255906000526020600020908101928215610c0e579160200282015b82811115610c0d578251825591602001919060010190610bf2565b5b509050610c1b9190610c1f565b5090565b610c4191905b80821115610c3d576000816000905550600101610c25565b5090565b905600a165627a7a723058206046e6f4e570baf51396c9ee00b3965da0a51bf77b3d2dacbd0f94c1bf3765f10029",
  "source": "pragma solidity ^0.4.17;\nimport \"eth-random/contracts/Random.sol\";\nimport \"./TinyGameStore.sol\";\n\ncontract TinyGame {\n\tmapping(address => uint[]) ownership;\n\taddress owner;\n\tRandom random;\n\tTinyGameStore store;\n\n\n\tevent PayOnce(address payer, uint dollID);\n\tevent SubmitSuccess(address winner);\n\tevent Transfer(address sender, address recipient);\n\n\tfunction TinyGame(address randomAddress, address storeAddress) public {\n\t\towner = msg.sender;\n\t\trandom = Random(randomAddress);\n\t\tstore = TinyGameStore(storeAddress);\n\t}\n\n\tfunction payToCatch() public payable {\n\t\trequire(msg.value==0.01 ether);\n\t\tuint re = catchDoll(msg.sender);\n\t\trequire(re != 5);\n\t\tPayOnce(msg.sender, re); //event\n\t}\n\n\tfunction catchDoll(address _user) internal returns (uint) {\n\t\tuint dollID = 0;\n\t\t//generate a random number in scale 100\n\t\tuint randint = random.random(100);\n\t\t//get doll ID according to randint\n\t\t//uint randint=1;\n\t\tif (randint < 20) dollID = 0;\n\t\telse if (randint < 40) dollID = 1;\n\t\telse if (randint < 60) dollID = 2;\n\t\telse if (randint < 80) dollID = 3;\n\t\telse dollID = 4;\n\t\t//write changes to map ownership\n\t\tif (dollID<0 || dollID>4) return 5;\n\t\tinitAddress(_user);\n\t\townership[_user][dollID]++;\n\t\treturn dollID;\n\t}\n\n\tfunction initAddress(address _user) internal {\n\t\tif (ownership[_user].length != 5) {\n\t\t\townership[_user] = new uint[](5);\n\t\t\tfor (uint index=0; index<5; index++) {\n\t\t\t\townership[_user][index] = 0;\n\t\t\t}\n\t\t}\n\t}\n\n\tfunction submit() public {\n\t\tinitAddress(msg.sender);\n\t\tuint _id = 0;\n\t\t\n\t\tfor (_id=0; _id<5; _id++) {\n\t\t\trequire(ownership[msg.sender][_id]>0);\n\t\t}\n\t\tmsg.sender.send(100000000000000000);\n\t\tfor (_id=0; _id<5; _id++) {\n\t\t\townership[msg.sender][_id]--;\n\t\t}\n\t\tSubmitSuccess(msg.sender); //event\n\t}\n\n\n\tfunction transferDoll(address _recipient, uint[] dollList) public returns (bool) {\n\t\trequire(dollList.length == 5); //dollList must have 5 items\n\t\tinitAddress(msg.sender);\n\t\tinitAddress(_recipient);\n\t\t// check sender has enough dolls\n\t\tfor (uint dollID=0; dollID<5; dollID++) {\n\t\t\trequire(ownership[msg.sender][dollID]>=dollList[dollID]);\n\t\t}\n\t\t// transfer\n\t\tfor (dollID=0; dollID<5; dollID++) {\n\t\t\townership[msg.sender][dollID] = ownership[msg.sender][dollID] - dollList[dollID];\n\t\t\townership[_recipient][dollID] = ownership[_recipient][dollID] + dollList[dollID];\n\t\t}\n\t\tTransfer(msg.sender, _recipient); //event\n\t}\n\n\tfunction getDollsByAddress(address _user) public returns (uint[]) {\n\t\tinitAddress(_user);\n\t\treturn ownership[_user];\n\t}\n\t\n\tfunction withdraw() public {\n\t\trequire(msg.sender == owner);\n\t\tmsg.sender.send(this.balance);\n\t}\n\n\tfunction showBalance() public returns (uint) {\n\t\t//require(msg.sender == owner);\n\t\treturn this.balance;\n\t}\n\n\tfunction loadBalance() public payable {\n\t\t//require(msg.sender == owner);\n\t}\n}\n\n\n\n\n",
  "sourcePath": "/home/zqz/Documents/truffle/GameWeb/contracts/TinyGame.sol",
  "compiler": {
    "name": "solc",
    "version": "0.4.18+commit.9cf6e910.Emscripten.clang"
  },
  "schemaVersion": "1.0.1",
  "updatedAt": "2018-01-18T03:56:04.540Z"
}