{
  "contractName": "TinyGameStore",
  "abi": [
    {
      "constant": false,
      "inputs": [
        {
          "name": "winner",
          "type": "address"
        }
      ],
      "name": "sendPrize",
      "outputs": [
        {
          "name": "",
          "type": "bool"
        }
      ],
      "payable": false,
      "stateMutability": "nonpayable",
      "type": "function"
    },
    {
      "constant": false,
      "inputs": [],
      "name": "showBalance",
      "outputs": [
        {
          "name": "",
          "type": "uint256"
        }
      ],
      "payable": false,
      "stateMutability": "nonpayable",
      "type": "function"
    },
    {
      "constant": false,
      "inputs": [],
      "name": "loadPrize",
      "outputs": [],
      "payable": true,
      "stateMutability": "payable",
      "type": "function"
    },
    {
      "inputs": [],
      "payable": false,
      "stateMutability": "nonpayable",
      "type": "constructor"
    }
  ],
  "bytecode": "0x6060604052341561000f57600080fd5b33600160006101000a81548173ffffffffffffffffffffffffffffffffffffffff021916908373ffffffffffffffffffffffffffffffffffffffff160217905550670de0b6b3a764000060008190555061017f8061006e6000396000f300606060405260043610610057576000357c0100000000000000000000000000000000000000000000000000000000900463ffffffff1680632a84bc6c1461005c57806381b2d07b146100ad57806387ee852f146100d6575b600080fd5b341561006757600080fd5b610093600480803573ffffffffffffffffffffffffffffffffffffffff169060200190919050506100e0565b604051808215151515815260200191505060405180910390f35b34156100b857600080fd5b6100c0610132565b6040518082815260200191505060405180910390f35b6100de610151565b005b60008173ffffffffffffffffffffffffffffffffffffffff166108fc6000549081150290604051600060405180830381858888f193505050501515610128576000905061012d565b600190505b919050565b60003073ffffffffffffffffffffffffffffffffffffffff1631905090565b5600a165627a7a723058200339b6c746c842311cd407dc9fb3ed458aa8b5290525775270231bc275db29570029",
  "source": "pragma solidity ^0.4.17;\n\ncontract TinyGameStore {\n\n\tuint prize;\n\taddress owner;\n\n\tfunction TinyGameStore() public {\n\t\towner = msg.sender;\n\t\tprize = 1000000000000000000;\n\t}\n\n\tfunction sendPrize(address winner) public returns (bool) {\n\t\tif(! winner.send(prize) ) {\n\t\t\treturn false;\n\t\t}\n\t\treturn true;\n\t}\n\n\tfunction showBalance() public returns (uint) {\n\t\t//require(msg.sender == owner);\n\t\treturn this.balance;\n\t}\n\n\tfunction loadPrize() public payable {\n\t\t//require(msg.sender == owner);\n\t}\n}\n",
  "sourcePath": "/home/zqz/Documents/truffle/GameWeb/contracts/TinyGameStore.sol",
  "compiler": {
    "name": "solc",
    "version": "0.4.18+commit.9cf6e910.Emscripten.clang"
  },
  "schemaVersion": "1.0.1",
  "updatedAt": "2018-01-17T06:55:42.944Z"
}