{
  "contractName": "TinyGame",
  "abi": [
    {
      "constant": false,
      "inputs": [
        {
          "name": "_user",
          "type": "address"
        }
      ],
      "name": "getDollsByAddress",
      "outputs": [
        {
          "name": "",
          "type": "uint256[5]"
        }
      ],
      "payable": false,
      "stateMutability": "nonpayable",
      "type": "function"
    },
    {
      "constant": false,
      "inputs": [
        {
          "name": "ammount",
          "type": "uint256"
        }
      ],
      "name": "fetchBalance",
      "outputs": [],
      "payable": false,
      "stateMutability": "nonpayable",
      "type": "function"
    },
    {
      "constant": false,
      "inputs": [],
      "name": "kill",
      "outputs": [],
      "payable": false,
      "stateMutability": "nonpayable",
      "type": "function"
    },
    {
      "constant": false,
      "inputs": [],
      "name": "submit",
      "outputs": [],
      "payable": false,
      "stateMutability": "nonpayable",
      "type": "function"
    },
    {
      "constant": false,
      "inputs": [],
      "name": "showBalance",
      "outputs": [
        {
          "name": "",
          "type": "uint256"
        }
      ],
      "payable": false,
      "stateMutability": "nonpayable",
      "type": "function"
    },
    {
      "constant": false,
      "inputs": [],
      "name": "payToCatch",
      "outputs": [],
      "payable": true,
      "stateMutability": "payable",
      "type": "function"
    },
    {
      "constant": false,
      "inputs": [
        {
          "name": "_recipient",
          "type": "address"
        },
        {
          "name": "dollList",
          "type": "uint256[]"
        }
      ],
      "name": "transferDoll",
      "outputs": [
        {
          "name": "",
          "type": "bool"
        }
      ],
      "payable": false,
      "stateMutability": "nonpayable",
      "type": "function"
    },
    {
      "constant": false,
      "inputs": [],
      "name": "loadBalance",
      "outputs": [],
      "payable": true,
      "stateMutability": "payable",
      "type": "function"
    },
    {
      "inputs": [
        {
          "name": "randomAddress",
          "type": "address"
        }
      ],
      "payable": false,
      "stateMutability": "nonpayable",
      "type": "constructor"
    },
    {
      "anonymous": false,
      "inputs": [
        {
          "indexed": false,
          "name": "payer",
          "type": "address"
        },
        {
          "indexed": false,
          "name": "dollID",
          "type": "uint256"
        }
      ],
      "name": "PayOnce",
      "type": "event"
    },
    {
      "anonymous": false,
      "inputs": [
        {
          "indexed": false,
          "name": "winner",
          "type": "address"
        }
      ],
      "name": "SubmitSuccess",
      "type": "event"
    },
    {
      "anonymous": false,
      "inputs": [
        {
          "indexed": false,
          "name": "sender",
          "type": "address"
        },
        {
          "indexed": false,
          "name": "recipient",
          "type": "address"
        }
      ],
      "name": "Transfer",
      "type": "event"
    }
  ],
  "bytecode": "0x6060604052341561000f57600080fd5b604051602080610c668339810160405280805190602001909190505033600160006101000a81548173ffffffffffffffffffffffffffffffffffffffff021916908373ffffffffffffffffffffffffffffffffffffffff16021790555080600260006101000a81548173ffffffffffffffffffffffffffffffffffffffff021916908373ffffffffffffffffffffffffffffffffffffffff16021790555050610ba9806100bd6000396000f30060606040526004361061008e576000357c0100000000000000000000000000000000000000000000000000000000900463ffffffff16806316cc702d1461009357806319313e851461010857806341c0e1b51461012b5780635bcb2fc61461014057806381b2d07b14610155578063b1b083d41461017e578063bb403ca814610188578063f638b98914610219575b600080fd5b341561009e57600080fd5b6100ca600480803573ffffffffffffffffffffffffffffffffffffffff16906020019091905050610223565b6040518082600560200280838360005b838110156100f55780820151818401526020810190506100da565b5050505090500191505060405180910390f35b341561011357600080fd5b61012960048080359060200190919050506102ac565b005b341561013657600080fd5b61013e61034b565b005b341561014b57600080fd5b6101536103de565b005b341561016057600080fd5b61016861057f565b6040518082815260200191505060405180910390f35b6101866105fa565b005b341561019357600080fd5b6101ff600480803573ffffffffffffffffffffffffffffffffffffffff169060200190919080359060200190820180359060200190808060200260200160405190810160405280939291908181526020018383602002808284378201915050505050509190505061069a565b604051808215151515815260200191505060405180910390f35b61022161095f565b005b61022b610b55565b6000808373ffffffffffffffffffffffffffffffffffffffff1673ffffffffffffffffffffffffffffffffffffffff1681526020019081526020016000206005806020026040519081016040528092919082600580156102a0576020028201915b81548152602001906001019080831161028c575b50505050509050919050565b600160009054906101000a900473ffffffffffffffffffffffffffffffffffffffff1673ffffffffffffffffffffffffffffffffffffffff163373ffffffffffffffffffffffffffffffffffffffff1614151561030857600080fd5b3373ffffffffffffffffffffffffffffffffffffffff166108fc829081150290604051600060405180830381858888f19350505050151561034857600080fd5b50565b3373ffffffffffffffffffffffffffffffffffffffff16600160009054906101000a900473ffffffffffffffffffffffffffffffffffffffff1673ffffffffffffffffffffffffffffffffffffffff1614156103dc57600160009054906101000a900473ffffffffffffffffffffffffffffffffffffffff1673ffffffffffffffffffffffffffffffffffffffff16ff5b565b6000809050600090505b60058110156104595760008060003373ffffffffffffffffffffffffffffffffffffffff1673ffffffffffffffffffffffffffffffffffffffff1681526020019081526020016000208260058110151561043e57fe5b015411151561044c57600080fd5b80806001019150506103e8565b3373ffffffffffffffffffffffffffffffffffffffff166108fc67016345785d8a00009081150290604051600060405180830381858888f1935050505015156104a157600080fd5b600090505b6005811015610519576000803373ffffffffffffffffffffffffffffffffffffffff1673ffffffffffffffffffffffffffffffffffffffff168152602001908152602001600020816005811015156104fa57fe5b01600081548092919060019003919050555080806001019150506104a6565b7f700d77496a531d4ef80d8e5a94ada9bf17b33c23d330e26a289a661e83a3130933604051808273ffffffffffffffffffffffffffffffffffffffff1673ffffffffffffffffffffffffffffffffffffffff16815260200191505060405180910390a150565b6000600160009054906101000a900473ffffffffffffffffffffffffffffffffffffffff1673ffffffffffffffffffffffffffffffffffffffff163373ffffffffffffffffffffffffffffffffffffffff161415156105dd57600080fd5b3073ffffffffffffffffffffffffffffffffffffffff1631905090565b6000660aa87bee5380003414151561061157600080fd5b61061a336109bd565b90506005811415151561062c57600080fd5b7f52b32f43c4246d18ef76f65b8ef13361bbdeaebca3235883b54cf9c9816b59843382604051808373ffffffffffffffffffffffffffffffffffffffff1673ffffffffffffffffffffffffffffffffffffffff1681526020018281526020019250505060405180910390a150565b600080600583511415156106ad57600080fd5b600090505b600581101561073a5782818151811015156106c957fe5b906020019060200201516000803373ffffffffffffffffffffffffffffffffffffffff1673ffffffffffffffffffffffffffffffffffffffff1681526020019081526020016000208260058110151561071e57fe5b01541015151561072d57600080fd5b80806001019150506106b2565b600090505b60058110156108c157828181518110151561075657fe5b906020019060200201516000803373ffffffffffffffffffffffffffffffffffffffff1673ffffffffffffffffffffffffffffffffffffffff168152602001908152602001600020826005811015156107ab57fe5b0154036000803373ffffffffffffffffffffffffffffffffffffffff1673ffffffffffffffffffffffffffffffffffffffff168152602001908152602001600020826005811015156107f957fe5b0181905550828181518110151561080c57fe5b906020019060200201516000808673ffffffffffffffffffffffffffffffffffffffff1673ffffffffffffffffffffffffffffffffffffffff1681526020019081526020016000208260058110151561086157fe5b0154016000808673ffffffffffffffffffffffffffffffffffffffff1673ffffffffffffffffffffffffffffffffffffffff168152602001908152602001600020826005811015156108af57fe5b0181905550808060010191505061073f565b7f4853ae1b4d437c4255ac16cd3ceda3465975023f27cb141584cd9d44440fed823385604051808373ffffffffffffffffffffffffffffffffffffffff1673ffffffffffffffffffffffffffffffffffffffff1681526020018273ffffffffffffffffffffffffffffffffffffffff1673ffffffffffffffffffffffffffffffffffffffff1681526020019250505060405180910390a15092915050565b600160009054906101000a900473ffffffffffffffffffffffffffffffffffffffff1673ffffffffffffffffffffffffffffffffffffffff163373ffffffffffffffffffffffffffffffffffffffff161415156109bb57600080fd5b565b6000806000809150600260009054906101000a900473ffffffffffffffffffffffffffffffffffffffff1673ffffffffffffffffffffffffffffffffffffffff1663b863bd376103e86000604051602001526040518263ffffffff167c010000000000000000000000000000000000000000000000000000000002815260040180828152602001915050602060405180830381600087803b1515610a6057600080fd5b6102c65a03f11515610a7157600080fd5b50505060405180519050905061012c811015610a905760009150610ad1565b610258811015610aa35760019150610ad0565b610316811015610ab65760029150610acf565b6103d4811015610ac95760039150610ace565b600491505b5b5b5b6000821080610ae05750600482115b15610aee5760059250610b4e565b6000808573ffffffffffffffffffffffffffffffffffffffff1673ffffffffffffffffffffffffffffffffffffffff16815260200190815260200160002082600581101515610b3957fe5b01600081548092919060010191905055508192505b5050919050565b60a0604051908101604052806005905b6000815260200190600190039081610b6557905050905600a165627a7a7230582029befc6949f96966c7cd90ac752ea2bead5863c661dfb7bfc5b1e31321dd66350029",
  "source": "pragma solidity ^0.4.17;\nimport \"eth-random/contracts/Random.sol\";\n\ncontract TinyGame {\n\tmapping(address => uint[5]) ownership;\n\taddress owner;\n\tRandom random;\n\n\tevent PayOnce(address payer, uint dollID);\n\tevent SubmitSuccess(address winner);\n\tevent Transfer(address sender, address recipient);\n\n\tfunction TinyGame(address randomAddress) public {\n\t\towner = msg.sender;\n\t\trandom = Random(randomAddress);\n\t}\n\n\tfunction payToCatch() public payable {\n\t\trequire(msg.value==0.003 ether);\n\t\tuint re = catchDoll(msg.sender);\n\t\trequire(re != 5);\n\t\tPayOnce(msg.sender, re); //event\n\t}\n\n\tfunction catchDoll(address _user) internal returns (uint) {\n\t\tuint dollID = 0;\n\t\t//generate a random number in scale 100\n\t\tuint randint = random.random(1000);\n\t\t//get doll ID according to randint\n\t\t//uint randint=1;\n\t\tif (randint < 300) dollID = 0;\n\t\telse if (randint < 600) dollID = 1;\n\t\telse if (randint < 790) dollID = 2;\n\t\telse if (randint < 980) dollID = 3;\n\t\telse dollID = 4;\n\t\t//write changes to map ownership\n\t\tif (dollID<0 || dollID>4) return 5;\n\t\t//initAddress(_user);\n\t\townership[_user][dollID]++;\n\t\treturn dollID;\n\t}\n\n\tfunction submit() public {\n\t\tuint _id = 0;\n\t\t\n\t\tfor (_id=0; _id<5; _id++) {\n\t\t\trequire(ownership[msg.sender][_id]>0);\n\t\t}\n\t\tmsg.sender.transfer(100000000000000000);\n\t\tfor (_id=0; _id<5; _id++) {\n\t\t\townership[msg.sender][_id]--;\n\t\t}\n\t\tSubmitSuccess(msg.sender); //event\n\t}\n\n\n\tfunction transferDoll(address _recipient, uint[] dollList) public returns (bool) {\n\t\trequire(dollList.length == 5); //dollList must have 5 items\n\t\t// check sender has enough dolls\n\t\tfor (uint dollID=0; dollID<5; dollID++) {\n\t\t\trequire(ownership[msg.sender][dollID]>=dollList[dollID]);\n\t\t}\n\t\t// transfer\n\t\tfor (dollID=0; dollID<5; dollID++) {\n\t\t\townership[msg.sender][dollID] = ownership[msg.sender][dollID] - dollList[dollID];\n\t\t\townership[_recipient][dollID] = ownership[_recipient][dollID] + dollList[dollID];\n\t\t}\n\t\tTransfer(msg.sender, _recipient); //event\n\t}\n\n\tfunction getDollsByAddress(address _user) public returns (uint[5]) {\n\t\treturn ownership[_user];\n\t}\n\t\n\tfunction fetchBalance(uint ammount) public {\n\t\trequire(msg.sender == owner);\n\t\tmsg.sender.transfer(ammount);\n\t}\n\n\tfunction showBalance() public returns (uint) {\n\t\trequire(msg.sender == owner);\n\t\treturn this.balance;\n\t}\n\n\tfunction loadBalance() public payable {\n\t\trequire(msg.sender == owner);\n\t}\n\n\tfunction kill() {\n\t\tif (owner == msg.sender) {\n\t\t\tselfdestruct(owner);\n\t\t}\n\t}\n}\n\n\n\n",
  "sourcePath": "/home/zqz/Documents/truffle/GameWeb/contracts/TinyGame.sol",
  "compiler": {
    "name": "solc",
    "version": "0.4.18+commit.9cf6e910.Emscripten.clang"
  },
  "schemaVersion": "1.0.1",
  "updatedAt": "2018-01-29T01:47:11.213Z"
}