{
  "contractName": "TinyGame",
  "abi": [
    {
      "constant": true,
      "inputs": [
        {
          "name": "_user",
          "type": "address"
        }
      ],
      "name": "getDollsByAddress",
      "outputs": [
        {
          "name": "",
          "type": "uint256[5]"
        }
      ],
      "payable": false,
      "stateMutability": "view",
      "type": "function"
    },
    {
      "constant": false,
      "inputs": [
        {
          "name": "ammount",
          "type": "uint256"
        }
      ],
      "name": "fetchBalance",
      "outputs": [],
      "payable": false,
      "stateMutability": "nonpayable",
      "type": "function"
    },
    {
      "constant": false,
      "inputs": [],
      "name": "submit",
      "outputs": [],
      "payable": false,
      "stateMutability": "nonpayable",
      "type": "function"
    },
    {
      "constant": true,
      "inputs": [],
      "name": "showBalance",
      "outputs": [
        {
          "name": "",
          "type": "uint256"
        }
      ],
      "payable": false,
      "stateMutability": "view",
      "type": "function"
    },
    {
      "constant": false,
      "inputs": [],
      "name": "payToCatch",
      "outputs": [],
      "payable": true,
      "stateMutability": "payable",
      "type": "function"
    },
    {
      "constant": false,
      "inputs": [
        {
          "name": "_recipient",
          "type": "address"
        },
        {
          "name": "dollList",
          "type": "uint256[]"
        }
      ],
      "name": "transferDoll",
      "outputs": [],
      "payable": false,
      "stateMutability": "nonpayable",
      "type": "function"
    },
    {
      "constant": false,
      "inputs": [],
      "name": "loadBalance",
      "outputs": [],
      "payable": true,
      "stateMutability": "payable",
      "type": "function"
    },
    {
      "inputs": [],
      "payable": false,
      "stateMutability": "nonpayable",
      "type": "constructor"
    },
    {
      "anonymous": false,
      "inputs": [
        {
          "indexed": false,
          "name": "payer",
          "type": "address"
        },
        {
          "indexed": false,
          "name": "dollID",
          "type": "uint256"
        }
      ],
      "name": "PayOnce",
      "type": "event"
    },
    {
      "anonymous": false,
      "inputs": [
        {
          "indexed": false,
          "name": "winner",
          "type": "address"
        }
      ],
      "name": "SubmitSuccess",
      "type": "event"
    },
    {
      "anonymous": false,
      "inputs": [
        {
          "indexed": false,
          "name": "sender",
          "type": "address"
        },
        {
          "indexed": false,
          "name": "recipient",
          "type": "address"
        }
      ],
      "name": "Transfer",
      "type": "event"
    }
  ],
  "bytecode": "0x60606040526000600255341561001457600080fd5b33600160006101000a81548173ffffffffffffffffffffffffffffffffffffffff021916908373ffffffffffffffffffffffffffffffffffffffff160217905550610a60806100646000396000f300606060405260043610610083576000357c0100000000000000000000000000000000000000000000000000000000900463ffffffff16806316cc702d1461008857806319313e85146100fd5780635bcb2fc61461012057806381b2d07b14610135578063b1b083d41461015e578063bb403ca814610168578063f638b989146101e1575b600080fd5b341561009357600080fd5b6100bf600480803573ffffffffffffffffffffffffffffffffffffffff169060200190919050506101eb565b6040518082600560200280838360005b838110156100ea5780820151818401526020810190506100cf565b5050505090500191505060405180910390f35b341561010857600080fd5b61011e6004808035906020019091905050610274565b005b341561012b57600080fd5b610133610313565b005b341561014057600080fd5b6101486104b4565b6040518082815260200191505060405180910390f35b6101666104d3565b005b341561017357600080fd5b6101df600480803573ffffffffffffffffffffffffffffffffffffffff1690602001909190803590602001908201803590602001908080602002602001604051908101604052809392919081815260200183836020028082843782019150505050505091905050610573565b005b6101e9610835565b005b6101f3610a0c565b6000808373ffffffffffffffffffffffffffffffffffffffff1673ffffffffffffffffffffffffffffffffffffffff168152602001908152602001600020600580602002604051908101604052809291908260058015610268576020028201915b815481526020019060010190808311610254575b50505050509050919050565b600160009054906101000a900473ffffffffffffffffffffffffffffffffffffffff1673ffffffffffffffffffffffffffffffffffffffff163373ffffffffffffffffffffffffffffffffffffffff161415156102d057600080fd5b3373ffffffffffffffffffffffffffffffffffffffff166108fc829081150290604051600060405180830381858888f19350505050151561031057600080fd5b50565b6000809050600090505b600581101561038e5760008060003373ffffffffffffffffffffffffffffffffffffffff1673ffffffffffffffffffffffffffffffffffffffff1681526020019081526020016000208260058110151561037357fe5b015411151561038157600080fd5b808060010191505061031d565b3373ffffffffffffffffffffffffffffffffffffffff166108fc67016345785d8a00009081150290604051600060405180830381858888f1935050505015156103d657600080fd5b600090505b600581101561044e576000803373ffffffffffffffffffffffffffffffffffffffff1673ffffffffffffffffffffffffffffffffffffffff1681526020019081526020016000208160058110151561042f57fe5b01600081548092919060019003919050555080806001019150506103db565b7f700d77496a531d4ef80d8e5a94ada9bf17b33c23d330e26a289a661e83a3130933604051808273ffffffffffffffffffffffffffffffffffffffff1673ffffffffffffffffffffffffffffffffffffffff16815260200191505060405180910390a150565b60003073ffffffffffffffffffffffffffffffffffffffff1631905090565b6000660aa87bee538000341415156104ea57600080fd5b6104f333610893565b90506005811415151561050557600080fd5b7f52b32f43c4246d18ef76f65b8ef13361bbdeaebca3235883b54cf9c9816b59843382604051808373ffffffffffffffffffffffffffffffffffffffff1673ffffffffffffffffffffffffffffffffffffffff1681526020018281526020019250505060405180910390a150565b60006005825114151561058557600080fd5b600090505b60058110156106125781818151811015156105a157fe5b906020019060200201516000803373ffffffffffffffffffffffffffffffffffffffff1673ffffffffffffffffffffffffffffffffffffffff168152602001908152602001600020826005811015156105f657fe5b01541015151561060557600080fd5b808060010191505061058a565b600090505b600581101561079957818181518110151561062e57fe5b906020019060200201516000803373ffffffffffffffffffffffffffffffffffffffff1673ffffffffffffffffffffffffffffffffffffffff1681526020019081526020016000208260058110151561068357fe5b0154036000803373ffffffffffffffffffffffffffffffffffffffff1673ffffffffffffffffffffffffffffffffffffffff168152602001908152602001600020826005811015156106d157fe5b018190555081818151811015156106e457fe5b906020019060200201516000808573ffffffffffffffffffffffffffffffffffffffff1673ffffffffffffffffffffffffffffffffffffffff1681526020019081526020016000208260058110151561073957fe5b0154016000808573ffffffffffffffffffffffffffffffffffffffff1673ffffffffffffffffffffffffffffffffffffffff1681526020019081526020016000208260058110151561078757fe5b01819055508080600101915050610617565b7f4853ae1b4d437c4255ac16cd3ceda3465975023f27cb141584cd9d44440fed823384604051808373ffffffffffffffffffffffffffffffffffffffff1673ffffffffffffffffffffffffffffffffffffffff1681526020018273ffffffffffffffffffffffffffffffffffffffff1673ffffffffffffffffffffffffffffffffffffffff1681526020019250505060405180910390a1505050565b600160009054906101000a900473ffffffffffffffffffffffffffffffffffffffff1673ffffffffffffffffffffffffffffffffffffffff163373ffffffffffffffffffffffffffffffffffffffff1614151561089157600080fd5b565b60008060006005915060028043406002546000604051602001526040518083600019166000191681526020018281526020019250505060206040518083038160008661646e5a03f115156108e657600080fd5b505060405180519050426000604051602001526040518083600019166000191681526020018281526020019250505060206040518083038160008661646e5a03f1151561093257600080fd5b50506040518051905060019004600281905550606460025481151561095357fe5b069050601e81101561096857600091506109a6565b603c81101561097a57600191506109a5565b604f81101561098c57600291506109a4565b606281101561099e57600391506109a3565b600491505b5b5b5b6000808573ffffffffffffffffffffffffffffffffffffffff1673ffffffffffffffffffffffffffffffffffffffff168152602001908152602001600020826005811015156109f157fe5b01600081548092919060010191905055508192505050919050565b60a0604051908101604052806005905b6000815260200190600190039081610a1c57905050905600a165627a7a723058203c9820e7f2d4b5a93cb50bad5608a9faed3a36f7252e4f056f250b7eed79aace0029",
  "source": "pragma solidity ^0.4.17;\n\ncontract TinyGame {\n\tmapping(address => uint[5]) ownership;\n\taddress owner;\n  uint seed = 0;\n  //Random random = Random(0x345ca3e014aaf5dca488057592ee47305d9b3e10);\n\tevent PayOnce(address payer, uint dollID);\n\tevent SubmitSuccess(address winner);\n\tevent Transfer(address sender, address recipient);\n\n\tfunction TinyGame() public {\n\t\towner = msg.sender;\n\t}\n\n\tfunction payToCatch() public payable {\n\t\trequire(msg.value==0.003 ether);\n\t\tuint re = catchDoll(msg.sender);\n\t\trequire(re != 5);\n\t\tPayOnce(msg.sender, re); //event\n\t}\n\n\tfunction catchDoll(address _user) internal returns (uint) {\n\t\tuint dollID = 5;\n\t\t//generate a random number in scale 100\n\t\tseed = uint(sha256(sha256(block.blockhash(block.number), seed), now));\n\t\tuint randint = seed % 100;\n\t\t//get doll ID according to randint\n\t\tif (randint < 30) dollID = 0;\n\t\telse if (randint < 60) dollID = 1;\n\t\telse if (randint < 79) dollID = 2;\n\t\telse if (randint < 98) dollID = 3;\n\t\telse dollID = 4;\n\t\t//write changes to map ownership\n\t\townership[_user][dollID]++;\n\t\treturn dollID;\n\t}\n\n\tfunction submit() public {\n\t\tuint _id = 0;\n\t\t\n\t\tfor (_id=0; _id<5; _id++) {\n\t\t\trequire(ownership[msg.sender][_id]>0);\n\t\t}\n\t\tmsg.sender.transfer(100000000000000000);\n\t\tfor (_id=0; _id<5; _id++) {\n\t\t\townership[msg.sender][_id]--;\n\t\t}\n\t\tSubmitSuccess(msg.sender); //event\n\t}\n\n\n\tfunction transferDoll(address _recipient, uint[] dollList) public {\n\t\trequire(dollList.length == 5); //dollList must have 5 items\n\t\t// check sender has enough dolls\n\t\tfor (uint dollID=0; dollID<5; dollID++) {\n\t\t\trequire(ownership[msg.sender][dollID]>=dollList[dollID]);\n\t\t}\n\t\t// transfer\n\t\tfor (dollID=0; dollID<5; dollID++) {\n\t\t\townership[msg.sender][dollID] = ownership[msg.sender][dollID] - dollList[dollID];\n\t\t\townership[_recipient][dollID] = ownership[_recipient][dollID] + dollList[dollID];\n\t\t}\n\t\tTransfer(msg.sender, _recipient); //event\n\t}\n\n\tfunction getDollsByAddress(address _user) public view returns (uint[5]) {\n\t\treturn ownership[_user];\n\t}\n\t\n\tfunction fetchBalance(uint ammount) public {\n\t\trequire(msg.sender == owner);\n\t\tmsg.sender.transfer(ammount);\n\t}\n\n\tfunction showBalance() public view returns (uint) {\n\t\treturn this.balance;\n\t}\n\n\tfunction loadBalance() public payable {\n\t\trequire(msg.sender == owner);\n\t}\n\n}\n\n\n\n",
  "sourcePath": "/home/zqz/Documents/truffle/GameWeb/contracts/TinyGame.sol",
  "compiler": {
    "name": "solc",
    "version": "0.4.18+commit.9cf6e910.Emscripten.clang"
  },
  "schemaVersion": "1.0.1",
  "updatedAt": "2018-01-29T08:09:00.410Z"
}