{
  "contractName": "TinyGame",
  "abi": [
    {
      "constant": false,
      "inputs": [
        {
          "name": "_user",
          "type": "address"
        }
      ],
      "name": "getDollsByAddress",
      "outputs": [
        {
          "name": "",
          "type": "uint256[]"
        }
      ],
      "payable": false,
      "stateMutability": "nonpayable",
      "type": "function"
    },
    {
      "constant": false,
      "inputs": [],
      "name": "withdraw",
      "outputs": [],
      "payable": false,
      "stateMutability": "nonpayable",
      "type": "function"
    },
    {
      "constant": false,
      "inputs": [],
      "name": "submit",
      "outputs": [],
      "payable": false,
      "stateMutability": "nonpayable",
      "type": "function"
    },
    {
      "constant": false,
      "inputs": [],
      "name": "showBalance",
      "outputs": [
        {
          "name": "",
          "type": "uint256"
        }
      ],
      "payable": false,
      "stateMutability": "nonpayable",
      "type": "function"
    },
    {
      "constant": false,
      "inputs": [],
      "name": "payToCatch",
      "outputs": [],
      "payable": true,
      "stateMutability": "payable",
      "type": "function"
    },
    {
      "constant": false,
      "inputs": [
        {
          "name": "_recipient",
          "type": "address"
        },
        {
          "name": "dollList",
          "type": "uint256[]"
        }
      ],
      "name": "transferDoll",
      "outputs": [
        {
          "name": "",
          "type": "bool"
        }
      ],
      "payable": false,
      "stateMutability": "nonpayable",
      "type": "function"
    },
    {
      "inputs": [
        {
          "name": "randomAddress",
          "type": "address"
        },
        {
          "name": "storeAddress",
          "type": "address"
        }
      ],
      "payable": false,
      "stateMutability": "nonpayable",
      "type": "constructor"
    },
    {
      "anonymous": false,
      "inputs": [
        {
          "indexed": false,
          "name": "payer",
          "type": "address"
        },
        {
          "indexed": false,
          "name": "dollID",
          "type": "uint256"
        }
      ],
      "name": "PayOnce",
      "type": "event"
    },
    {
      "anonymous": false,
      "inputs": [
        {
          "indexed": false,
          "name": "winner",
          "type": "address"
        }
      ],
      "name": "SubmitSuccess",
      "type": "event"
    },
    {
      "anonymous": false,
      "inputs": [
        {
          "indexed": false,
          "name": "sender",
          "type": "address"
        },
        {
          "indexed": false,
          "name": "recipient",
          "type": "address"
        }
      ],
      "name": "Transfer",
      "type": "event"
    }
  ],
  "bytecode": "0x6060604052341561000f57600080fd5b604051604080610e168339810160405280805190602001909190805190602001909190505033600160006101000a81548173ffffffffffffffffffffffffffffffffffffffff021916908373ffffffffffffffffffffffffffffffffffffffff16021790555081600260006101000a81548173ffffffffffffffffffffffffffffffffffffffff021916908373ffffffffffffffffffffffffffffffffffffffff16021790555080600360006101000a81548173ffffffffffffffffffffffffffffffffffffffff021916908373ffffffffffffffffffffffffffffffffffffffff1602179055505050610d0e806101086000396000f300606060405260043610610078576000357c0100000000000000000000000000000000000000000000000000000000900463ffffffff16806316cc702d1461007d5780633ccfd60b1461010b5780635bcb2fc61461012057806381b2d07b14610135578063b1b083d41461015e578063bb403ca814610168575b600080fd5b341561008857600080fd5b6100b4600480803573ffffffffffffffffffffffffffffffffffffffff169060200190919050506101f9565b6040518080602001828103825283818151815260200191508051906020019060200280838360005b838110156100f75780820151818401526020810190506100dc565b505050509050019250505060405180910390f35b341561011657600080fd5b61011e61029e565b005b341561012b57600080fd5b610133610349565b005b341561014057600080fd5b6101486105b3565b6040518082815260200191505060405180910390f35b6101666105d2565b005b341561017357600080fd5b6101df600480803573ffffffffffffffffffffffffffffffffffffffff1690602001909190803590602001908201803590602001908080602002602001604051908101604052809392919081815260200183836020028082843782019150505050505091905050610672565b604051808215151515815260200191505060405180910390f35b610201610c5c565b61020a8261097b565b6000808373ffffffffffffffffffffffffffffffffffffffff1673ffffffffffffffffffffffffffffffffffffffff16815260200190815260200160002080548060200260200160405190810160405280929190818152602001828054801561029257602002820191906000526020600020905b81548152602001906001019080831161027e575b50505050509050919050565b600160009054906101000a900473ffffffffffffffffffffffffffffffffffffffff1673ffffffffffffffffffffffffffffffffffffffff163373ffffffffffffffffffffffffffffffffffffffff161415156102fa57600080fd5b3373ffffffffffffffffffffffffffffffffffffffff166108fc3073ffffffffffffffffffffffffffffffffffffffff16319081150290604051600060405180830381858888f1935050505050565b6000806103553361097b565b600091505b60058210156103d55760008060003373ffffffffffffffffffffffffffffffffffffffff1673ffffffffffffffffffffffffffffffffffffffff168152602001908152602001600020838154811015156103b057fe5b9060005260206000209001541115156103c857600080fd5b818060010192505061035a565b600360009054906101000a900473ffffffffffffffffffffffffffffffffffffffff1673ffffffffffffffffffffffffffffffffffffffff16632a84bc6c336000604051602001526040518263ffffffff167c0100000000000000000000000000000000000000000000000000000000028152600401808273ffffffffffffffffffffffffffffffffffffffff1673ffffffffffffffffffffffffffffffffffffffff168152602001915050602060405180830381600087803b151561049a57600080fd5b6102c65a03f115156104ab57600080fd5b505050604051805190509050600115158115151415156104ca57600080fd5b600091505b600582101561054c576000803373ffffffffffffffffffffffffffffffffffffffff1673ffffffffffffffffffffffffffffffffffffffff1681526020019081526020016000208281548110151561052357fe5b9060005260206000209001600081548092919060019003919050555081806001019250506104cf565b7f700d77496a531d4ef80d8e5a94ada9bf17b33c23d330e26a289a661e83a3130933604051808273ffffffffffffffffffffffffffffffffffffffff1673ffffffffffffffffffffffffffffffffffffffff16815260200191505060405180910390a15050565b60003073ffffffffffffffffffffffffffffffffffffffff1631905090565b600066038d7ea4c68000341415156105e957600080fd5b6105f233610ab6565b90506005811415151561060457600080fd5b7f52b32f43c4246d18ef76f65b8ef13361bbdeaebca3235883b54cf9c9816b59843382604051808373ffffffffffffffffffffffffffffffffffffffff1673ffffffffffffffffffffffffffffffffffffffff1681526020018281526020019250505060405180910390a150565b6000806005835114151561068557600080fd5b61068e3361097b565b6106978461097b565b600090505b600581101561072e5782818151811015156106b357fe5b906020019060200201516000803373ffffffffffffffffffffffffffffffffffffffff1673ffffffffffffffffffffffffffffffffffffffff1681526020019081526020016000208281548110151561070857fe5b9060005260206000209001541015151561072157600080fd5b808060010191505061069c565b600090505b60058110156108dd57828181518110151561074a57fe5b906020019060200201516000803373ffffffffffffffffffffffffffffffffffffffff1673ffffffffffffffffffffffffffffffffffffffff1681526020019081526020016000208281548110151561079f57fe5b906000526020600020900154036000803373ffffffffffffffffffffffffffffffffffffffff1673ffffffffffffffffffffffffffffffffffffffff168152602001908152602001600020828154811015156107f757fe5b906000526020600020900181905550828181518110151561081457fe5b906020019060200201516000808673ffffffffffffffffffffffffffffffffffffffff1673ffffffffffffffffffffffffffffffffffffffff1681526020019081526020016000208281548110151561086957fe5b906000526020600020900154016000808673ffffffffffffffffffffffffffffffffffffffff1673ffffffffffffffffffffffffffffffffffffffff168152602001908152602001600020828154811015156108c157fe5b9060005260206000209001819055508080600101915050610733565b7f4853ae1b4d437c4255ac16cd3ceda3465975023f27cb141584cd9d44440fed823385604051808373ffffffffffffffffffffffffffffffffffffffff1673ffffffffffffffffffffffffffffffffffffffff1681526020018273ffffffffffffffffffffffffffffffffffffffff1673ffffffffffffffffffffffffffffffffffffffff1681526020019250505060405180910390a15092915050565b600060056000808473ffffffffffffffffffffffffffffffffffffffff1673ffffffffffffffffffffffffffffffffffffffff16815260200190815260200160002080549050141515610ab25760056040518059106109d75750595b90808252806020026020018201604052506000808473ffffffffffffffffffffffffffffffffffffffff1673ffffffffffffffffffffffffffffffffffffffff1681526020019081526020016000209080519060200190610a39929190610c70565b50600090505b6005811015610ab15760008060008473ffffffffffffffffffffffffffffffffffffffff1673ffffffffffffffffffffffffffffffffffffffff16815260200190815260200160002082815481101515610a9557fe5b9060005260206000209001819055508080600101915050610a3f565b5b5050565b6000806000809150600260009054906101000a900473ffffffffffffffffffffffffffffffffffffffff1673ffffffffffffffffffffffffffffffffffffffff1663b863bd3760646000604051602001526040518263ffffffff167c010000000000000000000000000000000000000000000000000000000002815260040180828152602001915050602060405180830381600087803b1515610b5857600080fd5b6102c65a03f11515610b6957600080fd5b5050506040518051905090506014811015610b875760009150610bc5565b6028811015610b995760019150610bc4565b603c811015610bab5760029150610bc3565b6050811015610bbd5760039150610bc2565b600491505b5b5b5b6000821080610bd45750600482115b15610be25760059250610c55565b610beb8461097b565b6000808573ffffffffffffffffffffffffffffffffffffffff1673ffffffffffffffffffffffffffffffffffffffff16815260200190815260200160002082815481101515610c3657fe5b9060005260206000209001600081548092919060010191905055508192505b5050919050565b602060405190810160405280600081525090565b828054828255906000526020600020908101928215610cac579160200282015b82811115610cab578251825591602001919060010190610c90565b5b509050610cb99190610cbd565b5090565b610cdf91905b80821115610cdb576000816000905550600101610cc3565b5090565b905600a165627a7a7230582002c82e2ca2d29448cb5ed23116823f99c7a7a459da2e2d38b7b375da0131f5860029",
  "source": "pragma solidity ^0.4.17;\nimport \"eth-random/contracts/Random.sol\";\nimport \"./TinyGameStore.sol\";\n\ncontract TinyGame {\n\tmapping(address => uint[]) ownership;\n\taddress owner;\n\tRandom random;\n\tTinyGameStore store;\n\n\n\tevent PayOnce(address payer, uint dollID);\n\tevent SubmitSuccess(address winner);\n\tevent Transfer(address sender, address recipient);\n\n\tfunction TinyGame(address randomAddress, address storeAddress) public {\n\t\towner = msg.sender;\n\t\trandom = Random(randomAddress);\n\t\tstore = TinyGameStore(storeAddress);\n\t}\n\n\tfunction payToCatch() public payable {\n\t\trequire(msg.value==0.001 ether);\n\t\tuint re = catchDoll(msg.sender);\n\t\trequire(re != 5);\n\t\tPayOnce(msg.sender, re); //event\n\t}\n\n\tfunction catchDoll(address _user) internal returns (uint) {\n\t\tuint dollID = 0;\n\t\t//generate a random number in scale 100\n\t\tuint randint = random.random(100);\n\t\t//get doll ID according to randint\n\t\t//uint randint=1;\n\t\tif (randint < 20) dollID = 0;\n\t\telse if (randint < 40) dollID = 1;\n\t\telse if (randint < 60) dollID = 2;\n\t\telse if (randint < 80) dollID = 3;\n\t\telse dollID = 4;\n\t\t//write changes to map ownership\n\t\tif (dollID<0 || dollID>4) return 5;\n\t\tinitAddress(_user);\n\t\townership[_user][dollID]++;\n\t\treturn dollID;\n\t}\n\n\tfunction initAddress(address _user) internal {\n\t\tif (ownership[_user].length != 5) {\n\t\t\townership[_user] = new uint[](5);\n\t\t\tfor (uint index=0; index<5; index++) {\n\t\t\t\townership[_user][index] = 0;\n\t\t\t}\n\t\t}\n\t}\n\n\tfunction submit() public {\n\t\tinitAddress(msg.sender);\n\t\tfor (uint dollID=0; dollID<5; dollID++) {\n\t\t\trequire(ownership[msg.sender][dollID]>0);\n\t\t}\n\t\tbool prize = store.sendPrize(msg.sender);\n\t\trequire(prize == true);\n\t\tfor (dollID=0; dollID<5; dollID++) {\n\t\t\townership[msg.sender][dollID]--;\n\t\t}\n\t\tSubmitSuccess(msg.sender); //event\n\t}\n\n\n\tfunction transferDoll(address _recipient, uint[] dollList) public returns (bool) {\n\t\trequire(dollList.length == 5); //dollList must have 5 items\n\t\tinitAddress(msg.sender);\n\t\tinitAddress(_recipient);\n\t\t// check sender has enough dolls\n\t\tfor (uint dollID=0; dollID<5; dollID++) {\n\t\t\trequire(ownership[msg.sender][dollID]>=dollList[dollID]);\n\t\t}\n\t\t// transfer\n\t\tfor (dollID=0; dollID<5; dollID++) {\n\t\t\townership[msg.sender][dollID] = ownership[msg.sender][dollID] - dollList[dollID];\n\t\t\townership[_recipient][dollID] = ownership[_recipient][dollID] + dollList[dollID];\n\t\t}\n\t\tTransfer(msg.sender, _recipient); //event\n\t}\n\n\tfunction getDollsByAddress(address _user) public returns (uint[]) {\n\t\tinitAddress(_user);\n\t\treturn ownership[_user];\n\t}\n\t\n\tfunction withdraw() public {\n\t\trequire(msg.sender == owner);\n\t\tmsg.sender.send(this.balance);\n\t}\n\n\tfunction showBalance() public returns (uint) {\n\t\t//require(msg.sender == owner);\n\t\treturn this.balance;\n\t}\n}\n\n\n\n\n",
  "sourcePath": "/home/zqz/Documents/truffle/GameWeb/contracts/TinyGame.sol",
  "compiler": {
    "name": "solc",
    "version": "0.4.18+commit.9cf6e910.Emscripten.clang"
  },
  "schemaVersion": "1.0.1",
  "updatedAt": "2018-01-17T06:55:42.947Z"
}