{
  "contractName": "TinyGame",
  "abi": [
    {
      "constant": false,
      "inputs": [
        {
          "name": "_user",
          "type": "address"
        }
      ],
      "name": "getDollsByAddress",
      "outputs": [
        {
          "name": "",
          "type": "uint256[]"
        }
      ],
      "payable": false,
      "stateMutability": "nonpayable",
      "type": "function"
    },
    {
      "constant": false,
      "inputs": [],
      "name": "submit",
      "outputs": [
        {
          "name": "",
          "type": "bool"
        }
      ],
      "payable": false,
      "stateMutability": "nonpayable",
      "type": "function"
    },
    {
      "constant": false,
      "inputs": [],
      "name": "payToCatch",
      "outputs": [
        {
          "name": "",
          "type": "uint256"
        }
      ],
      "payable": true,
      "stateMutability": "payable",
      "type": "function"
    },
    {
      "constant": false,
      "inputs": [
        {
          "name": "_recipient",
          "type": "address"
        },
        {
          "name": "dollList",
          "type": "uint256[]"
        }
      ],
      "name": "transferDoll",
      "outputs": [
        {
          "name": "",
          "type": "bool"
        }
      ],
      "payable": false,
      "stateMutability": "nonpayable",
      "type": "function"
    },
    {
      "inputs": [
        {
          "name": "randomAddress",
          "type": "address"
        }
      ],
      "payable": false,
      "stateMutability": "nonpayable",
      "type": "constructor"
    },
    {
      "anonymous": false,
      "inputs": [
        {
          "indexed": false,
          "name": "payer",
          "type": "address"
        }
      ],
      "name": "PayOnce",
      "type": "event"
    },
    {
      "anonymous": false,
      "inputs": [
        {
          "indexed": false,
          "name": "winner",
          "type": "address"
        }
      ],
      "name": "SubmitSuccess",
      "type": "event"
    },
    {
      "anonymous": false,
      "inputs": [
        {
          "indexed": false,
          "name": "sender",
          "type": "address"
        },
        {
          "indexed": false,
          "name": "recipient",
          "type": "address"
        }
      ],
      "name": "Transfer",
      "type": "event"
    }
  ],
  "bytecode": "0x6060604052341561000f57600080fd5b604051602080610c2b8339810160405280805190602001909190505033600160006101000a81548173ffffffffffffffffffffffffffffffffffffffff021916908373ffffffffffffffffffffffffffffffffffffffff16021790555080600260006101000a81548173ffffffffffffffffffffffffffffffffffffffff021916908373ffffffffffffffffffffffffffffffffffffffff16021790555050610b6e806100bd6000396000f300606060405260043610610062576000357c0100000000000000000000000000000000000000000000000000000000900463ffffffff16806316cc702d146100675780635bcb2fc6146100f5578063b1b083d414610122578063bb403ca814610140575b600080fd5b341561007257600080fd5b61009e600480803573ffffffffffffffffffffffffffffffffffffffff169060200190919050506101d1565b6040518080602001828103825283818151815260200191508051906020019060200280838360005b838110156100e15780820151818401526020810190506100c6565b505050509050019250505060405180910390f35b341561010057600080fd5b610108610276565b604051808215151515815260200191505060405180910390f35b61012a610408565b6040518082815260200191505060405180910390f35b341561014b57600080fd5b6101b7600480803573ffffffffffffffffffffffffffffffffffffffff169060200190919080359060200190820180359060200190808060200260200160405190810160405280939291908181526020018383602002808284378201915050505050509190505061047b565b604051808215151515815260200191505060405180910390f35b6101d9610abc565b6101e28261078b565b6000808373ffffffffffffffffffffffffffffffffffffffff1673ffffffffffffffffffffffffffffffffffffffff16815260200190815260200160002080548060200260200160405190810160405280929190818152602001828054801561026a57602002820191906000526020600020905b815481526020019060010190808311610256575b50505050509050919050565b6000806102823361078b565b600090505b60058110156103065760008060003373ffffffffffffffffffffffffffffffffffffffff1673ffffffffffffffffffffffffffffffffffffffff168152602001908152602001600020828154811015156102dd57fe5b9060005260206000209001541115156102f95760009150610404565b8080600101915050610287565b61030f336108c6565b151561031e5760009150610404565b600090505b60058110156103a0576000803373ffffffffffffffffffffffffffffffffffffffff1673ffffffffffffffffffffffffffffffffffffffff1681526020019081526020016000208181548110151561037757fe5b906000526020600020900160008154809291906001900391905055508080600101915050610323565b7f700d77496a531d4ef80d8e5a94ada9bf17b33c23d330e26a289a661e83a3130933604051808273ffffffffffffffffffffffffffffffffffffffff1673ffffffffffffffffffffffffffffffffffffffff16815260200191505060405180910390a15b5090565b60007fef7b263b4a08566735551d7c234cb73d9b2fb05612cd80e758c17e9e2e6ede1633604051808273ffffffffffffffffffffffffffffffffffffffff1673ffffffffffffffffffffffffffffffffffffffff16815260200191505060405180910390a161047633610917565b905090565b600080600583511415156104925760009150610784565b61049b3361078b565b6104a48461078b565b600090505b600581101561053d5782818151811015156104c057fe5b906020019060200201516000803373ffffffffffffffffffffffffffffffffffffffff1673ffffffffffffffffffffffffffffffffffffffff1681526020019081526020016000208281548110151561051557fe5b90600052602060002090015410156105305760009150610784565b80806001019150506104a9565b600090505b60058110156106ec57828181518110151561055957fe5b906020019060200201516000803373ffffffffffffffffffffffffffffffffffffffff1673ffffffffffffffffffffffffffffffffffffffff168152602001908152602001600020828154811015156105ae57fe5b906000526020600020900154036000803373ffffffffffffffffffffffffffffffffffffffff1673ffffffffffffffffffffffffffffffffffffffff1681526020019081526020016000208281548110151561060657fe5b906000526020600020900181905550828181518110151561062357fe5b906020019060200201516000808673ffffffffffffffffffffffffffffffffffffffff1673ffffffffffffffffffffffffffffffffffffffff1681526020019081526020016000208281548110151561067857fe5b906000526020600020900154016000808673ffffffffffffffffffffffffffffffffffffffff1673ffffffffffffffffffffffffffffffffffffffff168152602001908152602001600020828154811015156106d057fe5b9060005260206000209001819055508080600101915050610542565b7f4853ae1b4d437c4255ac16cd3ceda3465975023f27cb141584cd9d44440fed823385604051808373ffffffffffffffffffffffffffffffffffffffff1673ffffffffffffffffffffffffffffffffffffffff1681526020018273ffffffffffffffffffffffffffffffffffffffff1673ffffffffffffffffffffffffffffffffffffffff1681526020019250505060405180910390a15b5092915050565b600060056000808473ffffffffffffffffffffffffffffffffffffffff1673ffffffffffffffffffffffffffffffffffffffff168152602001908152602001600020805490501415156108c25760056040518059106107e75750595b90808252806020026020018201604052506000808473ffffffffffffffffffffffffffffffffffffffff1673ffffffffffffffffffffffffffffffffffffffff1681526020019081526020016000209080519060200190610849929190610ad0565b50600090505b60058110156108c15760008060008473ffffffffffffffffffffffffffffffffffffffff1673ffffffffffffffffffffffffffffffffffffffff168152602001908152602001600020828154811015156108a557fe5b906000526020600020900181905550808060010191505061084f565b5b5050565b60008173ffffffffffffffffffffffffffffffffffffffff166108fc60039081150290604051600060405180830381858888f19350505050151561090d5760009050610912565b600190505b919050565b6000806000809150600260009054906101000a900473ffffffffffffffffffffffffffffffffffffffff1673ffffffffffffffffffffffffffffffffffffffff1663b863bd3760646000604051602001526040518263ffffffff167c010000000000000000000000000000000000000000000000000000000002815260040180828152602001915050602060405180830381600087803b15156109b957600080fd5b6102c65a03f115156109ca57600080fd5b50505060405180519050905060148110156109e85760009150610a26565b60288110156109fa5760019150610a25565b603c811015610a0c5760029150610a24565b6050811015610a1e5760039150610a23565b600491505b5b5b5b60008210158015610a38575060048211155b1515610a4357600080fd5b610a4c8461078b565b6000808573ffffffffffffffffffffffffffffffffffffffff1673ffffffffffffffffffffffffffffffffffffffff16815260200190815260200160002082815481101515610a9757fe5b9060005260206000209001600081548092919060010191905055508192505050919050565b602060405190810160405280600081525090565b828054828255906000526020600020908101928215610b0c579160200282015b82811115610b0b578251825591602001919060010190610af0565b5b509050610b199190610b1d565b5090565b610b3f91905b80821115610b3b576000816000905550600101610b23565b5090565b905600a165627a7a72305820eb37360f9caf1c04fdae99ac712d4b2a57964212a7988b648a0d63c47406c97d0029",
  "source": "pragma solidity ^0.4.17;\nimport \"eth-random/contracts/Random.sol\";\n\ncontract TinyGame {\n\tmapping(address => uint[]) ownership;\n\taddress owner;\n\tRandom random;\n\n\n\tevent PayOnce(address payer);\n\tevent SubmitSuccess(address winner);\n\tevent Transfer(address sender, address recipient);\n\n\tfunction TinyGame(address randomAddress) public {\n\t\towner = msg.sender;\n\t\trandom = Random(randomAddress);\n\t}\n\n\tfunction payToCatch() public payable returns (uint) {\n\t\t//require(msg.value==1);\n\t\tPayOnce(msg.sender); //event\n\t\treturn catchDoll(msg.sender);\n\t}\n\n\tfunction catchDoll(address _user) internal returns (uint) {\n\t\tuint dollID = 0;\n\t\t//generate a random number in scale 100\n\t\tuint randint = random.random(100);\n\t\t//get doll ID according to randint\n\t\t//uint randint=1;\n\t\tif (randint < 20) dollID = 0;\n\t\telse if (randint < 40) dollID = 1;\n\t\telse if (randint < 60) dollID = 2;\n\t\telse if (randint < 80) dollID = 3;\n\t\telse dollID = 4;\n\t\t//write changes to map ownership\n\t\trequire(dollID>=0 && dollID<=4);\n\t\tinitAddress(_user);\n\t\townership[_user][dollID]++;\n\t\treturn dollID;\n\t}\n\n\tfunction initAddress(address _user) internal {\n\t\tif (ownership[_user].length != 5) {\n\t\t\townership[_user] = new uint[](5);\n\t\t\tfor (uint index=0; index<5; index++) {\n\t\t\t\townership[_user][index] = 0;\n\t\t\t}\n\t\t}\n\t}\n\n\tfunction submit() public returns (bool) {\n\t\tinitAddress(msg.sender);\n\t\tfor (uint dollID=0; dollID<5; dollID++) {\n\t\t\tif (ownership[msg.sender][dollID]<=0) return false;\n\t\t}\n\t\tif(!sendPrize(msg.sender)) return false;\n\t\tfor (dollID=0; dollID<5; dollID++) {\n\t\t\townership[msg.sender][dollID]--;\n\t\t}\n\t\tSubmitSuccess(msg.sender); //event\n\t}\n\n\n\tfunction sendPrize(address winner) internal returns (bool) {\n\t\tif(! winner.send(3)) {\n\t\t\treturn false;\n\t\t}\n\t\treturn true;\n\t}\n\n\n\tfunction transferDoll(address _recipient, uint[] dollList) public returns (bool) {\n\t\tif (dollList.length != 5) return false; //dollList must have 5 items\n\t\tinitAddress(msg.sender);\n\t\tinitAddress(_recipient);\n\t\t// check sender has enough dolls\n\t\tfor (uint dollID=0; dollID<5; dollID++) {\n\t\t\tif(ownership[msg.sender][dollID]<dollList[dollID]) return false;\n\t\t}\n\t\t// transfer\n\t\tfor (dollID=0; dollID<5; dollID++) {\n\t\t\townership[msg.sender][dollID] = ownership[msg.sender][dollID] - dollList[dollID];\n\t\t\townership[_recipient][dollID] = ownership[_recipient][dollID] + dollList[dollID];\n\t\t}\n\t\tTransfer(msg.sender, _recipient); //event\n\t}\n\n\tfunction getDollsByAddress(address _user) public returns (uint[]) {\n\t\tinitAddress(_user);\n\t\treturn ownership[_user];\n\t}\n\n\n}\n\n\n\n\n",
  "sourcePath": "/home/zqz/Documents/truffle/GameWeb/contracts/TinyGame.sol",
  "compiler": {
    "name": "solc",
    "version": "0.4.18+commit.9cf6e910.Emscripten.clang"
  },
  "schemaVersion": "1.0.1",
  "updatedAt": "2018-01-15T08:32:39.430Z"
}